:020000040800F2
:1000000018090020DD010008311400085D0D00080A
:100010002D140008050A00081F1C0008000000003D
:100020000000000000000000000000002916000889
:100030000D0B000800000000B91400083D1700086F
:10004000F7010008F7010008F7010008F7010008B0
:10005000F7010008F7010008F7010008F7010008A0
:10006000F7010008F7010008F7010008F701000890
:10007000F7010008F7010008F7010008F701000880
:10008000F7010008F7010008F7010008F701000870
:10009000F7010008F7010008F7010008F701000860
:1000A000F7010008F7010008F7010008F701000850
:1000B000F7010008A1170008F7010008F701000880
:1000C000F7010008F7010008F7010008F701000830
:1000D000F701000819190008F7010008A119000824
:1000E000F7010008F7010008F7010008F701000810
:1000F000F7010008F7010008F7010008F701000800
:10010000F7010008F7010008F7010008F7010008EF
:10011000F7010008F7010008F7010008F7010008DF
:10012000F7010008F7010008F7010008F7010008CF
:1001300000F002F800F042F80AA090E8000C8244B7
:100140008344AAF10107DA4501D100F037F8AFF294
:10015000090EBAE80F0013F0010F18BFFB1A43F0A5
:10016000010318474881000068810000103A24BF4D
:1001700078C878C1FAD8520724BF30C830C144BF0C
:1001800004680C607047000000230024002500264E
:10019000103A28BF78C1FBD8520728BF30C148BFEA
:1001A0000B607047642900F06F80782900F0A88008
:1001B000002070471FB51FBD10B510BD00F0B8FA84
:1001C0001146FFF7F7FF03F07FFC00F0D6FA03B407
:1001D000FFF7F2FF03BC01F02BFD00000948804748
:1001E00009480047FEE7FEE7FEE7FEE7FEE7FEE719
:1001F000FEE7FEE7FEE7FEE704480549054A064B31
:100200007047000041170008310100081803002062
:10021000180900201805002018050020704700006C
:100220000FB4044910B503AA029800F027FA10BCD5
:100230005DF814FB3000002070B504468569006845
:10024000C10601D5302600E02026C00707D070BDCA
:10025000D4E9012130469047206A401C20626D1E7F
:10026000F6D570BD70B5044685690078C00707D122
:1002700070BDD4E9012120209047206A401C2062F3
:100280006D1EF6D570BD00002DE9F0410646002434
:1002900010687529314616A510D0AFF300800028EC
:1002A00002DA404213A507E031688A0701D512A59A
:1002B00002E0490704D511A5012401E0AFF3008055
:1002C00000210A2206F1240709E0B0FBF2FCB0FB92
:1002D000F2F302FB1C00303078541846491C002809
:1002E000F3D123462A463046BDE8F04100F06DB90F
:1002F000000000002D0000002B0000002000000086
:1003000070B504460D4621461068AFF30080218881
:10031000090502D50F4A7A4402E00E4A7A440E32A9
:10032000002104F1240305E000F00F060009965DAA
:100330005E54491C0028F7D120780023000704D51B
:10034000702D02D009B1022311322046BDE8704061
:1003500000F03BB9587F00002DE9F05F8946044664
:100360004FF0000ADFF824B1FB44C0F820A020467B
:10037000E168884700287DD0252806D0D4E90121EE
:100380009047206A401C2062F1E700255F46204626
:10039000E16888472028064607DB312E05D2B819C8
:1003A00010F8200C08B10543F1E7A80701D525F0A6
:1003B0000405C4F81CA00027C4F818A02A2E09D0F0
:1003C000304601F02EFC38B304EB8708303EC8F805
:1003D000186019E059F8041B204604EB870291616C
:1003E000E1688847012F064618D1E069002820DA25
:1003F00025F020051DE0D8F8180000EB800006EB82
:1004000040003038C8F818002046E16888470646A2
:1004100001F007FC0028EED1012F0AD02E2E08D1C2
:100420002046E16888477F1C0646022F45F02005DC
:10043000C4DBA069002803DA404245F00105A06151
:10044000E80701D025F01005A6B1A6F14100192852
:1004500002D8203645F400654A46314620462560DC
:100460004D46FFF79FFE60B1012807D0ED1D25F036
:10047000070000E007E000F1080978E705F104094A
:1004800075E730467AE7206ABDE8F09F2E7F0000CE
:10049000032A40F2308010F0030C00F0158011F8B0
:1004A000013BBCF1020F624498BF11F801CB00F888
:1004B000013B38BF11F8013BA2F1040298BF00F8DC
:1004C00001CB38BF00F8013B11F0030300F0258099
:1004D000083AC0F0088051F8043B083A51F804CBC0
:1004E000A0E80810F5E7121D5CBF51F8043B40F886
:1004F000043BAFF30080D20724BF11F8013B11F891
:1005000001CB48BF11F8012B24BF00F8013B00F8D4
:1005100001CB48BF00F8012B704710B5203AC0F05E
:100520000B80B1E81850203AA0E81850B1E81850F4
:10053000A0E81850BFF4F5AF5FEA027C24BFB1E831
:100540001850A0E8185044BF18C918C0BDE81040A2
:100550005FEA827C24BF51F8043B40F8043B08BFAB
:100560007047D20728BF31F8023B48BF11F8012B72
:1005700028BF20F8023B48BF00F8012B70474FF01E
:1005800000020429C0F0128010F0030C00F08A80F1
:10059000CCF1040CBCF1020F18BF00F8012BA8BF6E
:1005A00020F8022BA1EB0C0100F07CB85FEAC17CC3
:1005B00024BF00F8012B00F8012B48BF00F8012BE5
:1005C000704770477047704770472DE9F0470D46F8
:1005D00099469246044600F124080168880604D52D
:1005E000E06921F01001216000E00120A84201DD56
:1005F000471B00E00027A1697A1902EB0900081ADD
:10060000A0612078C00602D42046FFF715FE002620
:1006100008E0D4E901211AF806009047206A401C3E
:10062000761C20624E45F4DB2078C0060AD52046B1
:10063000FFF702FE06E0D4E9012130209047206A4E
:10064000401C2062381EA7F10107F4DC07E0D4E962
:10065000012118F805009047206A401C2062281EDE
:10066000A5F10105F3DC2046FFF7FCFD207800062C
:1006700002D50220BDE8F0870120FBE7074B70B5EB
:100680000D467B4400F039F80446284600F048F84F
:1006900010B14FF0FF3070BD204670BD73160000E2
:1006A0004FF0000200B5134694469646203922BF0B
:1006B000A0E80C50A0E80C50B1F12001BFF4F7AF56
:1006C000090728BFA0E80C5048BF0CC05DF804EB38
:1006D000890028BF40F8042B08BF704748BF20F8A6
:1006E000022B11F0804F18BF00F8012B704700005B
:1006F00001694A1C02610878704700B58FB0CDE9E6
:1007000001310021059105497944CDE903101146D5
:100710006846FFF721FE0FB000BD0000E5FFFFFFB8
:10072000007B00F08000704700487047B402002052
:100730007546FFF7F9FFAE4605006946534620F0BF
:100740000700854618B020B5FFF756FDBDE82040EC
:100750004FF000064FF000074FF000084FF0000B7D
:1007600021F00701AC46ACE8C009ACE8C009ACE830
:10077000C009ACE8C0098D46704710B50446AFF318
:1007800000802046BDE81040FFF721BD21B18268FE
:1007900042F00102826003E0826822F0010282607E
:1007A0007047000010B504461248844208D1012168
:1007B000401500F0BFFE0021601500F0BBFE17E001
:1007C0000D48844208D10121001500F0B3FE00213C
:1007D000201500F0AFFE0BE00848844208D101214B
:1007E000C80300F0A7FE00214FF4004000F0A2FE75
:1007F00010BD00000024014000280140003C0140E1
:10080000014600208A6802F004020AB1012000E0DB
:10081000002070470146C86C80B270470246002035
:1008200013680B400BB1012000E000207047014627
:1008300000208A6802F008020AB1012000E00020CE
:100840007047000030B502460020002350680F4C6E
:1008500020400D790C6844EA0524204350609068DC
:100860000B4C2040D1E902542C434D7944EA450415
:1008700020439060D06A20F470000C7C641EE4B2C7
:10088000234340EA0350D06230BD0000FFFEF0FF7A
:10089000FDF7F1FFF0B504460D4600200021092DBB
:1008A00011DDE068A5F10A0606EB4607072606FA01
:1008B00007F18843A5F10A0606EB460603FA06F19E
:1008C0000843E0600CE0206905EB4507072606FABF
:1008D00007F1884305EB450603FA06F1084320615A
:1008E000072A0FDA606B561E06EB86071F2606FAEC
:1008F00007F18843561E06EB860605FA06F1084303
:10090000606322E00D2A0FDA206BD61F06EB860704
:100910001F2606FA07F18843D61F06EB860605FA5E
:1009200006F10843206310E0E06AA2F10D0606EB31
:1009300086071F2606FA07F18843A2F10D0606EB8B
:10094000860605FA06F10843E062F0BD816841F0D1
:1009500008018160704721B1826842F4A002826080
:1009600003E0826822F4A00282607047816841F04F
:10097000040181607047000000B587B001214FF489
:10098000017000F0C7FD4FF4004000F097FD022019
:10099000ADF8040000208DF8070001A9174800F009
:1009A000B6F81748FFF7FEFE002002908DF80C0005
:1009B0008DF80D004FF46020049000200590012078
:1009C0008DF8180002A90E48FFF73CFF01210C48E2
:1009D000FFF7DCFE0A48FFF7B9FF00BF0848FFF742
:1009E00026FF0028FAD10648FFF7C0FF00BF0448E1
:1009F000FFF706FF0028FAD107B000BD000801404C
:100A00000024014000BFFEE739B1084A1268012303
:100A100083401A43054B1A6006E0044A126801231A
:100A200083409A43014B1A607047000000740040F5
:100A300008B5014600200090054800902C2000EBEE
:100A40009100009A104400900098006880B208BDA0
:100A50000074004030B5002200230A4C226840F6A2
:100A6000FE748440A243D1E900452C438D682C4399
:100A7000CD6844EA050303FA00F42243014C2260E6
:100A800030BD00000074004008B500220092054A05
:100A9000009200F10802009B1A440092009A116033
:100AA00008BD00000074004000B585B0012104209D
:100AB00000F030FD0121480700F00CFD1020ADF8DA
:100AC000100000208DF8130003208DF8120004A9F7
:100AD0000D4800F01CF810210B4800F0F6F800203B
:100AE0000090019002900220039069460020FFF7D9
:100AF000B1FF01210020FFF787FF00210846FFF723
:100B0000C3FF05B000BD00000008014070472DE99B
:100B1000F041024600250026002000230024002783
:100B200091F803C00CF00F0591F803C00CF0100C05
:100B3000BCF1000F03D091F802C04CEA050591F812
:100B400000C0BCF1000F31D0146800202BE04FF042
:100B5000010C0CFA00F3B1F800C00CEA03069E4247
:100B600020D183004FF00F0C0CFA03F7BC4305FAB9
:100B700003FC4CEA040491F803C0BCF1280F06D131
:100B80004FF0010C0CFA00FCC2F814C00AE091F816
:100B900003C0BCF1480F05D14FF0010C0CFA00FC6A
:100BA000C2F810C0401C0828D1D31460B1F800C0AE
:100BB000BCF1FF0F34DD546800202EE000F1080C7A
:100BC0004FF0010808FA0CF3B1F800C00CEA030674
:100BD0009E4221D183004FF00F0C0CFA03F7BC4367
:100BE00005FA03FC4CEA040491F803C0BCF1280F99
:100BF00005D100F1080C08FA0CF8C2F8148091F83D
:100C000003C0BCF1480F07D100F1080C4FF00108F8
:100C100008FA0CF8C2F81080401C0828CED35460A3
:100C2000BDE8F081F0B50A4600230024002100252C
:100C300000F00046B6F1004F02D11D4EF16901E00F
:100C40001B4E7168C0F3034583B200F44016B6F53D
:100C5000401F08D121F07061154E766826F070664D
:100C6000134F7E6012E000F48016B6F5801F06D1A7
:100C7000032606FA05F4A14341F0706106E0460D33
:100C8000360103FA06F6B14341F0706122B1460D18
:100C9000360103FA06F6314300F00046B6F1004F84
:100CA00002D1034EF16101E0014E7160F0BD000020
:100CB000000001400246002093680B400BB1012068
:100CC00000E00020704741617047016170470000FB
:100CD00010B504460723012221460948FFF7DAFD33
:100CE00001210748FFF737FE00BF02210448FFF744
:100CF00095FD0028F9D00248FFF78CFD10BD0000DB
:100D0000002401402DE9F04107460C46002500264D
:100D100008E03846FFF7DCFF0544052000F0ACFF93
:100D2000701CC6B2A642F4DBB5FBF4F080B2BDE89D
:100D3000F081000010B541F61F41092000F040FD90
:100D40004FF4165003F07AF913210348FFF717FC0C
:100D500002F088FE10BD00004C00002000BFFEE73E
:100D600008B50121082000F0D5FB01210648FFF756
:100D700059FF0320ADF8000048208DF803006946B4
:100D80000248FFF7C4FE08BD00023000000C01401D
:100D900010B5044614B101201949087018480078AC
:100DA000E8B101211748FFF785FF20B1022115485E
:100DB000FFF780FF98B90A2000F05EFF002010497D
:100DC000087001210F48FFF775FF08B9012010BD19
:100DD00002210C48FFF76EFF78B90220F7E70121E6
:100DE0000848FFF767FF012807D102210548FFF7F0
:100DF00061FF012801D1024908700020E7E70000E7
:100E000015000020000C01402DE9F04104460D467C
:100E100016461F462A2000F0ADFAA11C88B200F049
:100E20009AFAB11C88B200F096FA2B2000F0A2FAD0
:100E3000691C88B200F08FFA791C88B200F08BFA36
:100E40002C2000F097FABDE8F08170B504460D46FD
:100E500016462B46224629462046FFF7D5FF304648
:100E600000F079FA70BD2DE9F04706460F461446AA
:100E70001D46DDF820A0681E83B2601E82B239468E
:100E80003046FFF7C1FFB8460EE0B14606E05046D7
:100E900000F061FA09F101001FFA80F9A145F6DBC3
:100EA00008F101001FFA80F8A845EEDBBDE8F087E5
:100EB00008B501212C2000F02DFB4BF26010ADF89D
:100EC000000010208DF8030003208DF80200694611
:100ED0001048FFF71CFE4BF260110E48FFF7F5FEBD
:100EE0000420ADF8000069460B48FFF710FE04210E
:100EF0000948FFF7EAFE8020ADF8000048208DF891
:100F0000030003208DF8020069460248FFF7FFFD49
:100F100008BD0000000C01400014014010B5FFF7AF
:100F2000C7FF04217A48FFF7CEFE642000F0A4FE3C
:100F300004217748FFF7C9FE642000F09DFE4021A0
:100F40007448FFF7C2FE642000F096FE112000F006
:100F500011FA782000F090FEB12000F00BFA052085
:100F600000F002FA3C2000F0FFF93C2000F0FCF910
:100F7000B22000F0FFF9052000F0F6F93C2000F067
:100F8000F3F93C2000F0F0F9B32000F0F3F905206C
:100F900000F0EAF93C2000F0E7F93C2000F0E4F929
:100FA000052000F0E1F93C2000F0DEF93C2000F0E3
:100FB000DBF9B42000F0DEF9032000F0D5F9C02001
:100FC00000F0D8F9282000F0CFF9082000F0CCF983
:100FD000042000F0C9F9C12000F0CCF9C02000F0D5
:100FE000C3F9C22000F0C6F90D2000F0BDF90020C1
:100FF00000F0BAF9C32000F0BDF98D2000F0B4F97B
:101000002A2000F0B1F9C42000F0B4F98D2000F0DE
:10101000ABF9EE2000F0A8F9C52000F0ABF91A20DA
:1010200000F0A2F9362000F0A5F9C02000F09CF9EC
:10103000E02000F09FF9042000F096F9222000F053
:1010400093F9072000F090F90A2000F08DF92E2086
:1010500000F08AF9302000F087F9252000F084F9AB
:101060002A2000F081F9282000F07EF9262000F0E7
:101070007BF92E2000F078F93A2000F075F9002075
:1010800000F072F9012000F06FF9032000F06CF914
:10109000132000F069F9E12000F06CF9042000F061
:1010A00063F9162000F060F9062000F05DF90D20CC
:1010B00000F05AF92D2000F057F9262000F054F9DD
:1010C000232000F051F9272000F04EF9272000F0EE
:1010D0004BF9252000F048F92D2000F045F93B2080
:1010E00000F042F9002000F03FF9012000F03CF947
:1010F000042000F039F9132000F036F93A2000F00E
:1011000039F9052000F030F9292000F033F910BD3D
:1011100000140140000C01402DE9FF5F80468A4623
:1011200017469B460F9D00200290CDF80080284670
:1011300005EBD071C1F347042046E21704EB52726D
:10114000D2102146E31704EB5373DB10A4EBC30367
:101150000BB1012300E000231A446A4392B20192CA
:10116000A7F12000C7B20AEB0500401E83B208EBCE
:101170000400401E82B251464046FFF745FE00265D
:1011800069E00C2D07D107EB4700354901EB8000E2
:10119000805D03901BE0102D05D1324800EB071055
:1011A000805D039013E0182D07D107EB47002E490F
:1011B00001EB0010805D039009E0202D05D12B4844
:1011C00000EB8710805D039001E0BDE8FF9F4FF0CA
:1011D00000093AE01098C8B9012000FA09F0039913
:1011E000084018B1584600F0B6F802E00E9800F03A
:1011F000B2F80298401CC0B20290029890FBF4F141
:1012000004FB1100E8B90020029021E0012000FA5F
:1012100009F00399084020B15A4651464046FFF76D
:1012200014FE08F101001FFA80F80098A8EB0000F6
:10123000A04206D1DDF800800AF101001FFA80FA11
:1012400006E009F1010000F0FF09B9F1080FC1DB68
:1012500000BF701C86B20198864292DB00BFB4E7E3
:1012600056490008CA4D0008BA5300088A650008AC
:101270002DE9FF4F85B0074690461C46DDE91396E1
:10128000304606EBD071C1F3470B2149404603F0CD
:1012900021FA039003F0EAF980B20490002531E0CE
:1012A000601B401EC1B20A2002F028FC0499B1FB69
:1012B000F0F00A21B0FBF1F201FB120AA01EA842D5
:1012C00010D10020A11E01FB0B71CDE90096029008
:1012D00088B22E22129B0699FFF71EFF681CC5B22A
:1012E000601CC4B200200AF13001CAB205FB0B71C8
:1012F000CDE90096029088B2129B0699FFF70CFF89
:10130000681CC5B2A542CBDB09B0BDE8F08F000078
:101310000000C8422DE9FE4F06460F461446984687
:10132000DDE90D5ADDF8309010E0CDE9015ACDF835
:1013300000902278434639463046FFF7EDFE2846B6
:1013400005EBD07106EB61018EB2641C2078002899
:10135000EBD1BDE8FE8F10B50446201200F01AF85C
:10136000E0B200F017F810BD10B50446204600F0BA
:1013700011F810BD10B5044620210548FFF7A3FC65
:10138000204600F007F820210148FFF79EFC10BD21
:10139000000C014070B504464FF480511448FFF72B
:1013A00092FC00251BE04FF400511148FFF78BFC25
:1013B00004F0800028B14FF400410D48FFF785FC90
:1013C00004E04FF400410A48FFF77DFC4FF4005160
:1013D0000748FFF77AFC6006040E681CC5B2082DAA
:1013E000E1DB4FF480510248FFF76FFC70BD000055
:1013F000000C014008B50121042000F08BF84FF4E7
:101400008070ADF8000010208DF8030003208DF8E7
:10141000020069460448FFF77AFB4FF480710248E6
:10142000FFF753FC08BD00000008014000BFFEE7C5
:101430007047000070B5002100230F22C47804B368
:10144000154C246804F4E064C4F5E064210AC1F199
:101450000403CA40447804FA03F184781440214319
:1014600009010E4C0678A155047804F01F050124EB
:10147000AC4005786D11AD0005F1E025C5F80041DF
:1014800009E0047804F01F050124AC40044D0678FF
:10149000761145F8264070BD0CED00E000E400E058
:1014A00080E100E002490143024A116070470000F8
:1014B0000000FA050CED00E0704700000146002036
:1014C000034A506820F440400843506070470000D1
:1014D0000010024029B1064AD2690243044BDA6186
:1014E00004E0034AD2698243014BDA61704700008D
:1014F0000010024029B1064A12690243044B1A61E6
:1015000004E0034A12698243014B1A6170470000EC
:101510000010024029B1064A92690243044B9A61C5
:1015200004E0034A92698243014B9A6170470000CC
:101530000010024029B1064AD2680243044BDA6027
:1015400004E0034AD2688243014BDA60704700002E
:101550000010024030B500210022002400232D4D50
:101560006D6805F00C0121B1042905D0082923D1AB
:1015700005E0294D056022E0274D05601FE0254D5F
:101580006D6805F47012234D6D6805F480340225F2
:1015900005EB92421CB9214D554305600BE01D4DF2
:1015A0006D6805F400351DB11C4D5543056002E022
:1015B000194D5543056002E0174D056000BF00BF9F
:1015C000144D6D6805F0F0010909154D6B5C056857
:1015D000DD4045600F4D6D6805F4E061090A104D6E
:1015E0006B5C4568DD4085600A4D6D6805F46051AF
:1015F000C90A0B4D6B5C4568DD40C560054D6D68E3
:1016000005F44041890B074D6B5CC568B5FBF3F5EC
:10161000056130BD0010024000127A0000093D0053
:101620001600002026000020704710B500F002F8D8
:1016300010BD00000CB500200190009033480068F8
:1016400040F480303149086000BF3048006800F441
:10165000003000900198401C0190009818B9019842
:10166000B0F5A06FF1D12948006800F4003010B146
:101670000120009001E0002000900098012843D153
:101680002348006840F010002149086008460068BF
:1016900020F0030008600846006840F0020008607F
:1016A0001A4840681949486008464068486008463A
:1016B000406840F4806048600846406820F47C1030
:1016C00048600846406840F4E810486008460068F2
:1016D00040F08070086000BF0C48006800F00070A7
:1016E0000028F9D00948406820F003000749486005
:1016F0000846406840F00200486000BF0348406868
:1017000000F00C000828F9D10CBD000000100240C8
:1017100000200240042808D14FF0E021096941F07F
:1017200004014FF0E022116107E04FF0E021096968
:1017300021F004014FF0E022116170477047000072
:1017400010B51348006840F00100114908600846D0
:101750004068104908400E494860084600680E4934
:1017600008400B4908600846006820F480200860A3
:101770000846406820F4FE0048604FF41F0088606F
:10178000FFF753FF4FF000600449086010BD0000F0
:10179000001002400000FFF8FFFFF6FE08ED00E039
:1017A00010B50121054800F04AF828B1012103488D
:1017B00000F036F801F06EFE10BD0000000400409D
:1017C0007FB505460C4601210220FFF783FEADF8E8
:1017D0000850ADF804400020ADF80A00ADF806004E
:1017E00001A90E4800F046F8012211460B4800F00E
:1017F00037F81D208DF8000000208DF8010003202F
:101800008DF8020001208DF803006846FFF712FEF4
:101810000121024800F007F87FBD000000040040ED
:10182000CA430282704721B1028842F0010202805D
:1018300004E002884FF6FE731A400280704730B50C
:101840000246002000230024158A05EA0103958939
:1018500005EA010413B10CB1012000E0002030BD05
:101860001AB183890B43838102E083898B4383818F
:1018700070470000002202881D4B98420ED01D4B7D
:1018800098420BD0B0F1804F08D01B4B984205D046
:101890001A4B984202D01A4B984204D14FF68F73DC
:1018A0001A404B881A43174B984207D0164B984260
:1018B00004D04FF6FF431A40CB881A4302808B882E
:1018C00083850B8803850A4B98420BD0094B9842BD
:1018D00008D00E4B984205D00D4B984202D00D4BCC
:1018E000984201D10B7A038601238382704700005E
:1018F000002C01400034014000040040000800407A
:10190000000C004000100040001400400040014066
:10191000004401400048014010B540F225511D48E7
:1019200000F0B9F810B31B4800F070F9C4B21A48BF
:10193000008800F40040C8B91748008800F48040CF
:1019400060B10A2C03D000201349088020E012481F
:10195000008840F400401049088019E00D2C06D1A1
:101960000D48008840F480400B49088010E00A4888
:101970000088C0F30D0009490C5407480088401C3A
:101980000549088008460088C72801DD0020088036
:1019900010BD000000380140340000205F0000202E
:1019A00008B540F22551074800F075F840B10548E8
:1019B00000F02CF9C0B200900121684601F022FC31
:1019C00008BD00000048004021B1828942F4005265
:1019D000828104E082894DF6FF731A40828170474C
:1019E00010B504462048844209D101218803FFF73D
:1019F000A1FD00214FF48040FFF79CFD32E01B4821
:101A0000844209D101214804FFF774FD00214FF4FD
:101A10000030FFF76FFD25E01548844209D1012110
:101A20008804FFF767FD00214FF48020FFF762FD77
:101A300018E01048844209D10121C804FFF75AFD7B
:101A400000214FF40020FFF755FD0BE00A488442C7
:101A500008D101210805FFF74DFD00214FF480104A
:101A6000FFF748FD10BD0000003801400044004071
:101A700000480040004C004000500040024600205A
:101A8000B1F5007F00D100BF13880B400BB10120DE
:101A900000E00020704770B50246002400230025B6
:101AA000002040F66A16B14200D100BFC1F34215D2
:101AB00001F01F03012606FA03F3012D02D19689D6
:101AC000334006E0022D02D1168A334001E0968AA7
:101AD00033400C12012606FA04F41688344013B180
:101AE0000CB1012000E0002070BDF0B503460024D9
:101AF00000260025002040F66A17B94200D100BF39
:101B00001846C1F3421401F01F06012707FA06F533
:101B1000012C01D10C3004E0022C01D1103000E086
:101B200014301AB107682F43076002E00768AF431B
:101B30000760F0BD2DE9F04786B005460E4600244B
:101B4000A24600BFA1460027B08900B100BF2F46C2
:101B50002C8A4CF6FF700440F08804432C82AC8938
:101B60004EF6F3100440B088318908437189084368
:101B70000443AC81AC8A4FF6FF400440B089044373
:101B8000AC8201A8FFF7E6FC1F48874202D1DDF8CE
:101B900010A001E0DDF80CA0A88900F4004040B1DD
:101BA0000AEBCA0000EB0A1031684900B0FBF1F8FB
:101BB00007E00AEBCA0000EB0A1031688900B0FBAD
:101BC000F1F86420B8FBF0F004012009642101FB66
:101BD0001089A88900F4004040B1322000EBC90010
:101BE000B0FBF1F000F00700044308E0322000EB06
:101BF00009106421B0FBF1F000F00F0004432C81C8
:101C000006B0BDE8F0870000003801400146888832
:101C1000C0F308007047C1F308028280704700BF1C
:101C2000FEE730380A2801D20120704700207047B3
:101C300000BF704710B56FF00400FFF76BFD0A4856
:101C400000680A49B0FBF1F00949087008460078BD
:101C500000EB4001C1EBC0104FF6FF7101EAC0007C
:101C60000449088010BD00000000002000127A0026
:101C70002A0000202C0000200146114A12884A4305
:101C80004FF0E0235A6100229A611A46126942F02D
:101C900001021A6100BF4FF0E022106900F001025A
:101CA0001AB100F48032002AF5D04FF0E022126918
:101CB00022F001024FF0E0231A6100229A6170477E
:101CC0002C00002001B581B000200090694601AAD7
:101CD0005078087010784870BDF800000CBD0146BF
:101CE000080601F47F4240EA022001F47F0240EA44
:101CF000122040EA1160704700BF054A128802F0C6
:101D00004002002AF9D0C2B2014B1B1D1A80704755
:101D100000380140024612B102F0070028B9082934
:101D200001D8002070470120FCE702F00700C0F155
:101D30000800884201D30020F4E70120F2E730B523
:101D400002460B460021002400250AB9481E30BD7A
:101D5000002108E0545C581A401E155C5554581A6E
:101D6000401E1454491CB1EB530FF3D30020EEE78F
:101D70002DE9F04104460D460027002604B135B98F
:101D80003FA0FEF74DFA4FF0FF30BDE8F08100F0C4
:101D9000C1FA064628782178884203D042A0FEF78F
:101DA0003FFA012768786178884203D044A0FEF7A3
:101DB00037FA0127A878A178884203D046A0FEF719
:101DC0002FFA0127E878E178884203D048A0FEF78F
:101DD00027FA012728792179884203D04AA0FEF703
:101DE0001FFA012768796179884203D04CA0FEF779
:101DF00017FA0127A879A179884203D04EA0FEF7EF
:101E00000FFA0127D5F80700D4F8071088420AD046
:101E10004F480068301A41F27071884203D34DA0D8
:101E2000FEF7FEF90127D4F80B10D5F80B0002F0ED
:101E3000E9FB0AD046480068301A41F270718842C6
:101E400003D34CA0FEF7ECF90127D4F80F10D5F816
:101E50000F0002F0D7FB0AD03D480068301A41F26B
:101E60007071884203D34AA0FEF7DAF90127012FE7
:101E700003D100F04FFA36490860384685E7000084
:101E800067697A436865636B5265706F7274204549
:101E900072726F72202C20496C6C6567616C2050E7
:101EA0006172616D0A00000076616C756553776937
:101EB00074636831204368616E6765640A000000DE
:101EC00076616C7565537769746368322043686125
:101ED0006E6765640A00000076616C75655377690A
:101EE00074636833204368616E6765640A000000AC
:101EF00076616C75655377697463683420436861F3
:101F00006E6765640A00000076616C7565537769D9
:101F100074636835204368616E6765640A00000079
:101F200076616C75655377697463683620436861C0
:101F30006E6765640A00000076616C7565537769A9
:101F400074636837204368616E6765640A00000047
:101F50003C00002076616C75654761735F436F6E6E
:101F600063656E74726174696F6E204368616E6739
:101F700065640A0076616C7565496E7075745F56AC
:101F80006F6C74616765204368616E6765640A0001
:101F900076616C7565436F6C6C656374696F6E5FB9
:101FA000566F6C74616765204368616E6765640A8B
:101FB00000000000F8B505460C4616460DB104B108
:101FC0002EB958A0FEF72CF94FF0FF30F8BD287855
:101FD00000F0010098B111212278601C8154207812
:101FE000401C207001206B1C024600210090084616
:101FF00001F0EEF908B1012000E0002030702878EF
:10200000C0F3400098B112212278601C81542078DE
:10201000401C207001206B1C0246014600900020ED
:1020200001F0D6F908B1012000E000207070287896
:10203000C0F3800098B113212278601C815420786D
:10204000401C207001206B1C0246022100900020E1
:1020500001F0BEF908B1012000E00020B07028783E
:10206000C0F3C00098B114212278601C81542078FC
:10207000401C207001206B1C0246032100900020B0
:1020800001F0A6F908B1012000E00020F0702878E6
:10209000C0F3001098B115212278601C815420787B
:1020A000401C207001206B1C02460421009000207F
:1020B00001F08EF908B1012000E00020307128788D
:1020C000C0F3401098B116212278601C815420780A
:1020D000401C207001206B1C02460521009000204E
:1020E00001F076F908B1012000E000207071287835
:1020F000C0F3801098B117212278601C8154207899
:10210000401C207001206B1C02460621009000201C
:1021100001F05EF908B1012000E00020B07100205C
:1021200054E7000067697A44617461506F696E74A6
:10213000324576656E74204572726F72202C20498C
:102140006C6C6567616C20506172616D0A00000003
:10215000F8B504460D4604B12DB932A0FEF760F87B
:102160004FF0FF30F8BD0020287020782B46012268
:1021700000210090084601F0EBF860782B46012220
:1021800011460090002001F0E3F8A0782B460122D0
:1021900002210090002001F0DBF8E0782B460122BC
:1021A00003210090002001F0D3F820792B46012272
:1021B00004210090002001F0CBF860792B46012229
:1021C00005210090002001F0C3F8A0792B460122E0
:1021D00006210090002001F0BBF801212846FFF7FE
:1021E000AEFDD4F807200121084601F05BF96870C4
:1021F000D4F80B204FF07E51164801F05AF986B200
:102200003046FFF75FFD6880D4F80F204FF07E5115
:10221000104801F04EF986B23046FFF753FDA88012
:1022200000209FE767697A44617461506F696E743A
:1022300073325265706F72744461746120457272BA
:102240006F72202C20496C6C6567616C2050617244
:10225000616D0A006F12833A70B5054600F05AF8B6
:1022600004461D492846FFF783FD012813D11BA012
:10227000FDF7D6FF184919392846FFF769FF28B935
:10228000062215491939042000F0F6FF13222946C9
:102290001148FEF7FDF81748B4FBF0F100FB1140C0
:1022A000C8B915480068A04215D014A0FDF7B8FFC2
:1022B000094919392846FFF74BFF28B90622064974
:1022C0001939042000F0D8FF132229460248FEF7EE
:1022D000DFF80948046070BD0A0200206368616E7F
:1022E0006765642C207265706F727420646174611C
:1022F0000A000000C027090040000020496E666FF8
:102300003A2036303053207265706F7274206461E9
:1023100074610A000148006870470000380000201E
:1023200010B5174890F84400012827D1144890F8B8
:10233000430002281DDAFFF7EDFF1149D1F86210C2
:10234000401AC8281AD9FFF7E5FF04460C4890F850
:102350004330D0F8622021460AA0FDF761FF00F06B
:10236000A9FE074890F84300401C054981F8430046
:1023700004E0232102484330FEF701F910BD0000BC
:10238000270100205761726E696E673A67697A505B
:10239000726F746F636F6C526573656E64446174C1
:1023A000612025642025642025640A003EB504468A
:1023B000002524B913A0FDF733FF681E3EBD206839
:1023C0000090606801909DF80400401CC0B28DF838
:1023D00004000520FFF776FCADF8020009216846ED
:1023E00000F0A6FE8DF808000921684601F0AAFD5C
:1023F0000546002D03DA29460DA0FDF711FF2846FA
:10240000DCE700004552523A2067697A50726F74D7
:102410006F636F6C436F6D6D6F6E41636B206461B2
:10242000746120697320656D707479200A00000062
:102430004552523A20756172742077726974652032
:102440006572726F72202564200A0000FEB5044692
:102450000E46002524B914A0FDF7E2FE681EFEBD5D
:10246000684600F0D7F912208DF8040060798DF8E5
:1024700005000620FFF726FCADF802008DF8086085
:102480000A21684600F054FE8DF809000A216846CA
:1024900001F058FD0546002D03DA29460DA0FDF791
:1024A000BFFE2846DBE7000067697A50726F746FE1
:1024B000636F6C4572726F72436D64204572726F08
:1024C00072202C20496C6C6567616C2050617261D0
:1024D0006D0A00004552523A20756172742077727D
:1024E000697465206572726F72202564200A00008D
:1024F00030B59DB0044600252CB92BA0FDF790FE09
:10250000681E1DB030BD684600F084F902208DF8C9
:10251000040060798DF805002FA103C9CDE90201FF
:1025200030A103C9CDE9040131A103C9CDE90801F6
:1025300032A103C9CDE90601202233A10AA8FDF783
:10254000ECFF202239A10DF15200FDF7A1FF002080
:10255000CDF84A00CDF84E009DF851008DF851009D
:102560009DF8510040F002018DF851100020FFF756
:10257000A9FBADF848006F20FFF7A4FBADF80200FF
:102580007321684600F0D4FD8DF87200732168460F
:1025900001F0D8FC0546002D03DA29462CA0FDF7F2
:1025A0003FFE2846ADE7000067697A50726F746F8E
:1025B000636F6C476574446576696365496E666FE1
:1025C000204572726F72202C20496C6C6567616CBB
:1025D00020506172616D0A0030303030303030345C
:1025E0000000000030303030303030320000000069
:1025F0003033303330303030000000003033303191
:10260000303130300000000037333032373565303C
:10261000313562663463613562663437303535385A
:10262000356136326130623100000000633034625F
:10263000633730393039633334643265396163303C
:10264000346233613336393332323666000000008B
:102650004552523A20756172742077726974652010
:102660006572726F72202564200A00002DE9FE4F0A
:1026700080460E4617464FF0000B00200290814620
:102680008246002534460090B8F1000F01D006B113
:1026900037B950A0FDF7C4FD4FF0FF30BDE8FE8F05
:1026A000404601F036FA00F0FF0ABAF1000F02D1FD
:1026B0004FF0FF30F2E74FF000095DE0012201A981
:1026C000404601F063FA8346BBF1000F52D04D48FB
:1026D0000078FF281FD19DF80400FF281BD14A482D
:1026E000007848B9FF2020706070022047490880B8
:1026F00001204549087034E044480088042830DD52
:1027000042480088A8422CD0FF2020706070022030
:102710003E49088025E03B480078FF2803D19DF81A
:10272000040055281DD038480078012819D19DF89B
:10273000040036490988605434480088401C3349F5
:1027400008800846008804280BDD0094009C6088FF
:10275000FFF7B8FA001D85B22C480088A84200D1C6
:102760000CE09DF804002749087029480078401CB7
:102770002749087009F10109D1459FDB00BF2348B3
:102780000088042823DD21480088A8421FD11F4863
:102790000188204600F0CCFC02901C480088401EB6
:1027A000215C029881420FD12A4621463046FDF72E
:1027B0006FFE3D80002014490870144908801449B8
:1027C00008701049087069E76FF0010066E70120A2
:1027D00064E7000067697A50726F746F636F6C47CB
:1027E00065744F6E655061636B6574204572726FDE
:1027F00072202C20496C6C6567616C20506172619D
:102800006D0A00004800002044000020460000201F
:102810004900002010B504462CB907A0FDF700FDC3
:102820004FF0FF3010BD002020606060FF2020705E
:1028300060700020F6E700004552523A2067697A3E
:1028400050726F746F636F6C48656164496E697430
:10285000206865616420697320656D707479200A51
:10286000000000002DE9F04F8FB006468B4617465A
:10287000994600200E908246804600256C46BBF1AA
:10288000000F06D130A0FDF7CBFC681E0FB0BDE8ED
:10289000F08FB9F1010F06D196F8088008F1060013
:1028A000384485B201E0781D85B22B464246394650
:1028B0002BA0FDF7B5FCFF2004F8010B04F8010B79
:1028C000281204F8010B04F8015B3079401C04F86D
:1028D000010B707904F8010B002004F8010B04F8D7
:1028E000019B4FF0080AB9F1010F0CD104F8018BDC
:1028F0000AF1010A0DEB0A00424606F10901FDF753
:10290000C7FDC24444442FB10DEB0A003A46594674
:10291000FDF7BEFD291D684600F00AFC0146E81CD3
:102920000DF80010291D684601F00CFB0E900E9862
:10293000002806DA14A00E99FDF772FC6FF0010072
:10294000A4E70020A2E700005B4552525D2020640E
:10295000617461204973204E756C6C200A00000080
:102960006C656E203D202564202C20734469644CE6
:10297000656E203D202564202C646174615F6C6568
:102980006E203D2025640A0075617274207772699B
:102990007465206572726F72202564200A00000041
:1029A0002DE9F04780460C4617461D46089E94F8D0
:1029B00000900CB105B136B930A0FDF731FC4FF0F5
:1029C000FF30BDE8F087B8F1000F55D11921374825
:1029D000FDF7D5FDB9F1010F06D0B9F1020F11D005
:1029E000B9F1050F46D125E0304A6A322F49601C03
:1029F000FFF7E0FA01202D49663908700025002014
:102A0000306038E02949643101F11900FFF7A0FB7B
:102A100060B9264864300168C5F801108088A5F8BF
:102A20000500032028700720306002E04FF0FF30DF
:102A3000C7E720E07A1E611C1C484A38FDF728FDD4
:102A4000781E1A496639C1F83700102117486638D0
:102A500090F8662067308154673890F86600401C13
:102A60001249663981F866000320087000250020AD
:102A7000306000E000BF00BF0020A2E767697A5025
:102A8000726F746F636F6C49737375656450726FA6
:102A900063657373204572726F72202C20496C6CD1
:102AA0006567616C20506172616D0A008D010020C4
:102AB00070B5044625462CB90EA0FDF7B1FB4FF0CA
:102AC000FF3070BD412205F108010E48FDF7E0FC22
:102AD0000F210D4890F8B120B2308154B23890F8EF
:102AE000B100401C084981F8B100052008700020A1
:102AF000E7E700004E545020697320656D707479CB
:102B0000200A00002A0200202701002010B50446F8
:102B10002CB9CAA0FDF784FB4FF0FF3010BD20890F
:102B2000FFF7D0F82081D1480078C0F38000217AE7
:102B3000C1F38001884256D0207AC0F3800000287B
:102B400029D0207A00F0010078B10021C84890F81F
:102B50007F2080308154803890F87F00401CC44929
:102B600081F87F00C3A0FDF75BFB207AC0F3400033
:102B7000002838D00121BE4890F87F208030815451
:102B8000803890F87F00401CB94981F87F00C1A0CF
:102B9000FDF746FB27E0207A00F0010078B1002124
:102BA000B34890F87F2080308154803890F87F00BF
:102BB000401CAF4981F87F00AEA0FDF731FB207AC1
:102BC000C0F3400078B10221A94890F87F208030FE
:102BD0008154803890F87F00401CA54981F87F001F
:102BE000B3A0FDF71DFBA1480078C0F3C000217A17
:102BF000C1F3C00188422CD0207AC1089B480078DC
:102C000061F3C30099490870207AC0F3C00080B115
:102C10000321974890F87F2080308154803890F8C5
:102C20007F00401C924981F87F00A8A0FDF7F8FAC8
:102C30000FE004218E4890F87F2080308154803846
:102C400090F87F00401C8A4981F87F00A7A0FDF71B
:102C5000E7FA86480078C0F30010217AC1F300112A
:102C600088422CD0207A01098048007861F3041052
:102C70007E490870207AC0F3001080B105217C489D
:102C800090F87F2080308154803890F87F00401C7D
:102C9000774981F87F009DA0FDF7C2FA0FE0062179
:102CA000734890F87F2080308154803890F87F00FE
:102CB000401C6F4981F87F009CA0FDF7B1FA6B487A
:102CC0000078C0F34010217AC1F3401188422CD023
:102CD000207A41096548007861F34510634908701E
:102CE000207AC0F3401080B10721614890F87F201E
:102CF00080308154803890F87F00401C5C4981F816
:102D00007F0093A0FDF78CFA0FE00821584890F857
:102D10007F2080308154803890F87F00401C5449D7
:102D200081F87F0091A0FDF77BFA50484078C0F30E
:102D3000C001607AC0F3C00081422CD0607AC10823
:102D40004A48407861F3C30048494870607AC0F34C
:102D5000C00080B10B21464890F87F20803081541C
:102D6000803890F87F00401C414981F87F0087A09F
:102D7000FDF756FA0FE00C213D4890F87F20803097
:102D80008154803890F87F00401C394981F87F00D9
:102D900085A0FDF745FA35484078C0F30011607A08
:102DA000C0F3001081422CD0607A01092F4840788E
:102DB00061F304102D494870607AC0F3001080B1AF
:102DC00009212B4890F87F2080308154803890F87A
:102DD0007F00401C264981F87F007BA0FDF720FA88
:102DE0000FE00A21224890F87F20803081548038FB
:102DF00090F87F00401C1E4981F87F0079A0FDF704
:102E00000FFA0D211A4890F87F20803081548038C5
:102E100090F87F00401C164981F87F00607A00F02E
:102E2000070081F8F600084690F8F61074A0FDF748
:102E3000F7F902200E49087000206FE667697A50A2
:102E4000726F746F636F6C4D6F64756C65537461F2
:102E5000747573204572726F72202C20496C6C65FA
:102E600067616C20506172616D0A00004A000020A9
:102E7000270100204F6E426F617264696E673A20CD
:102E8000536F66744150206F7220576562206D6FDA
:102E900064650A004F6E426F617264696E673A2022
:102EA0004169724C696E6B206D6F64650A000000A9
:102EB0004F6E426F617264696E673A205374617439
:102EC000696F6E206D6F64650A000000576946697E
:102ED000207374617475733A20696E2062696E6440
:102EE000696E67206D6F64650A0000005769466966
:102EF000207374617475733A206F75742062696E03
:102F000064696E67206D6F64650A000057694669E1
:102F1000207374617475733A20636F6E6E656374A9
:102F2000656420726F757465720A0000576946699E
:102F3000207374617475733A20646973636F6E6E85
:102F4000656374656420726F757465720A000000B1
:102F500057694669207374617475733A20636F6EA4
:102F60006E6563746564206D326D0A005769466949
:102F7000207374617475733A20646973636F6E6E45
:102F80006563746564206D326D0A00005769466997
:102F9000207374617475733A2061707020636F6E72
:102FA0006E6563740A000000576946692073746196
:102FB0007475733A206E6F2061707020636F6E6E4F
:102FC0006563740A000000005769466920737461E4
:102FD0007475733A20696E2074657374206D6F6424
:102FE000650A000057694669207374617475733A05
:102FF000206F75742074657374206D6F64650A00AA
:1030000052535349206973202564200A00000000B0
:1030100070B5044625462CB919A0FDF701F94FF00B
:10302000FF3070BD1B48A9680160E9684160298ACA
:103030000181A97C8172A0F1F701B1F8F700FEF7D8
:1030400041FE1449F739A1F8F700D1F8FF00FEF767
:1030500046FE1049F739C1F8FF000E210D48F73838
:1030600090F8982099308154993890F89800401C35
:103070000849F73981F89800042008700020D0E74B
:103080004552523A204E545020697320656D707439
:1030900079200A001E02002010B5FFF73BF9044614
:1030A00000BFFFF737F9001BB0F5167FF9D900F024
:1030B0000DFD10BD10B500240E4890F8440000B975
:1030C00010BD0DA0FDF7ACF80A48B0F8601045300F
:1030D00000F038FF04460748B0F86000A04202D074
:1030E0000DA0FDF79DF8FFF715F90249C1F8620040
:1030F00000BFE5E7270100205761726E696E673AED
:103100002074696D656F75742C20726573656E64CB
:103110002064617461200A004552523A207265733E
:10312000656E642064617461206572726F720A005A
:1031300010B502460024002302B109B9002010BDD9
:10314000022303E0D05C2044C4B25B1C481E9842BA
:10315000F8D82046F3E7000070B504460D462CB9B8
:103160000FA0FDF75DF84FF0FF3070BD232112482E
:10317000FDF705FA2A4621460F48801CFDF788F91D
:103180000D484338A0F86050012180F84410FFF743
:10319000C1F809494339C1F862000020E5E70000A1
:1031A0004552523A206461746120697320656D70E4
:1031B0007479200A000000006A01002070B50446FE
:1031C000094D2CB909A0FDF72BF84FF0FF3070BD69
:1031D0002879401C2179884204D123210248801E8D
:1031E000FDF7CDF90020F2E76C0100204552523A7C
:1031F000206461746120697320656D707479200AA0
:103200000000000070B504460D46002624B90AA04F
:10321000FDF706F8701E70BD2A4621460E4800F0E4
:1032200006FD0646AE4205D00CA0FCF7F9FF4FF0B4
:10323000FF30F0E73046EEE74552523A2067697AB0
:1032400050757444617461206275662069732065ED
:103250006D707479200A00006B0200204552523ACA
:10326000204661696C656420746F207262577269D0
:103270007465200A000000002DE9FF4105460E4656
:103280001746002436B920A0FCF7CAFF601E04B020
:10329000BDE8F0816846FFF7BDFA05208DF804000F
:1032A000234890F83B10D0F83B00401C204AC2F85D
:1032B0003B00C8B28DF805008DF808500C20FEF7D1
:1032C00001FDADF802003A4631460DF10900FDF767
:1032D000DFF810216846FFF72BFF8DF80F00102153
:1032E000684600F02FFE0446002C06DA214611A0A5
:1032F000FCF796FF6FF00100C9E710216846FFF761
:103300002BFF2046C3E7000067697A5265706F7231
:103310007444617461204572726F72202C20496C74
:103320006C6567616C20506172616D0A000000007D
:10333000270100204552523A20756172742077723D
:10334000697465206572726F72202564200A00001E
:103350002DE9F04704460D461746089E4FF0000938
:10336000CA46C8461BB94FF0FF30BDE8F087394662
:103370002846FEF7CFFC8046B8F1000F07D1185D54
:1033800005F0070106FA01F1084318551EE0B8F1EF
:10339000010F1BD1F0B205F00701C1F1080140FA9D
:1033A00001F905F00700C0F10801FF20084100EA1B
:1033B000060A601C185C40EA0900611C5854185D3C
:1033C00005F007010AFA01F1084318550020CCE77F
:1033D0002DE9F04F8FB005460C4616469946189FCA
:1033E0004FF0000AD34600200E908046B9F1000F3E
:1033F00000D027B94FF0FF300FB0BDE8F08F3A464C
:10340000494601A8FDF744F8012F09D9394601A81A
:10341000FEF795FCB0F1FF3F02D14FF0FF30EBE734
:1034200031462046FEF776FC8246BAF1000F0CD1F9
:1034300001A8405D04F007010841C6F10802FF2120
:103440001141084040EA080821E0BAF1010F1ED1FD
:1034500001A9681C085C04F00701C1F10801711A98
:10346000C1F10802FF21114100EA010B01A8405DF2
:1034700004F0070108410E9004F00700C0F10801B4
:103480000BFA01F040EA08080E9848EA00084046A6
:10349000B2E7000002480068401C0149086070471C
:1034A0003800002010B503460020541AB4FBF3F096
:1034B00010BD2DE9F04704460E461546002731465B
:1034C000284601F0D3F98146214600F0D9FF804615
:1034D00001F0CCF807463846BDE8F0872DE9FF5FDC
:1034E00007460E4693464FF000083446B14635462F
:1034F000B24607B126B94FF0FF3004B0BDE8F09FE7
:103500004FF0000884E0781C10F80800182879D2E1
:10351000DFE800F04B4C4D78784E4F50517878787A
:1035200078525C6B580C151E2730394220783B4985
:103530000870084601783AA0FCF772FE63E06078F4
:1035400036494870084641783BA0FCF769FE5AE0CE
:10355000A07832498870084681783DA0FCF760FE6B
:1035600051E0E0782D49C8700846C1783EA0FCF7CC
:1035700057FE48E02079294908710846017940A0A2
:10358000FCF74EFE3FE060792449487108464179D6
:1035900041A0FCF745FE36E0A07920498871084635
:1035A000817943A0FCF73CFE2DE02CE02BE02AE0E3
:1035B00029E028E027E026E099F8001042A0FCF777
:1035C0002FFE20E043A0FCF72BFE1CE0A9796A79CE
:1035D0002B79A868CDE90032CDE90210EB78AA7802
:1035E000298841A0FCF71CFE0DE04AA0FCF718FE5C
:1035F0004DA0FCF715FE9AF800104FA0FCF710FE46
:1036000001E0FFE700BF00BF08F1010000F0FF0884
:10361000387840453FF777AF00206EE74C00002038
:103620004576743A204556454E545F537769746326
:103630006831202564200A004576743A20455645B5
:103640004E545F53776974636832202564200A0002
:103650004576743A204556454E545F5377697463F6
:103660006833202564200A004576743A2045564583
:103670004E545F53776974636834202564200A00D0
:103680004576743A204556454E545F5377697463C6
:103690006835202564200A004576743A2045564551
:1036A0004E545F53776974636836202564200A009E
:1036B0004576743A204556454E545F537769746396
:1036C0006837202564200A00525353492025640A94
:1036D000000000005452414E53504152454E545F39
:1036E00044415441200A0000574946495F4E545016
:1036F000203A205B25642D25642D25642025303259
:10370000643A253032643A253032645D5B25645D6D
:10371000200A00004D4F44554C4520494E464F204D
:103720002E2E2E0A00000000574946204D4F4455CA
:103730004C45202E2E2E0A006D6F64756C655479F1
:103740007065203A205B25645D200A002DE9F04178
:1037500092B0054600260020039002900024804687
:10376000002735B981A0FCF75BFD601E12B0BDE8F3
:10377000F081FEF7D5FD03AA86498748FEF776FF5C
:103780000646002E71D185A0FCF74AFD814C2079B8
:103790000F284FD00ADC0E2873D2DFE800F0721633
:1037A000721A7272433872724472453C182852D0B1
:1037B00006DC112847D0142846D0162861D134E001
:1037C000222854D02A285CD130E02046FEF790FE13
:1037D0005FE0E279A17976A0FCF722FD02A80090D3
:1037E00007F10900BDF80C301A1A6A480830C119EF
:1037F00004AB4046FFF7D4F840B9E37904A920466A
:10380000029AFFF72FF86EA0FCF70AFD41E0204670
:10381000FEF7CCFD3DE02046FEF7C8FD2046FFF751
:1038200075F936E000BF00BF00BF00BF2046FFF7BC
:10383000C5FC2EE02046FEF7B9FD64A0FCF7F0FCC5
:10384000FFF72AFC25E024E02046FFF7B7FC64A040
:10385000FCF7E6FC1DE02046FFF7B0FC2046FFF732
:10386000D7FB67A0FCF7DCFC13E013E009E020467F
:10387000FFF7A4FC2046FFF71BF967A0FCF7D0FC7C
:1038800007E002212046FEF7E1FD6AA0FCF7C8FC34
:1038900000BF0DE016F1020F0AD13E4C0121204677
:1038A000FEF7D4FD69A0FCF7BBFC6FF001005DE7FB
:1038B0003848401E0078062851D2DFE800F0500357
:1038C00013232F3F00203349491E08701322D031A3
:1038D000A1F16A00FFF702FE19212E486530FCF7BE
:1038E0004EFE3DE000202B49491E08700122F631B2
:1038F000A1F17700FFF7F2FD192126487E30FCF791
:103900003EFE2DE000202349491E08700846D0F8ED
:1039100037201C316630FFF7E1FD21E000201D4912
:10392000491E08700C22F731A1F15F00FFF7D6FDA8
:10393000192118489730FCF722FE11E000201549A4
:10394000491E0870412201F20311A1F15200FFF754
:10395000C5FD41210F48B030FCF711FE00E000BF6B
:1039600000BF2846FEF778FC0020FFE647697A771B
:1039700069747348616E646C65204572726F722061
:103980002C20496C6C6567616C20506172616D0A16
:1039900000000000280100206B0200204765742011
:1039A0004F6E65205061636B6574210A0000000052
:1039B000666C6167202578202578200A00000000C9
:1039C00041636B44617461203A200A007265706F34
:1039D00072743A4D4355207265626F6F74210A000C
:1039E00041636B2050524F44554354494F4E5F4DF5
:1039F0004F44452073756363657373200A000000AC
:103A000041636B204745545F55545420737563637D
:103A1000657373200A00000041636B204745545FC3
:103A20004D6F64756C652073756363657373200AED
:103A3000000000004552523A20636D6420636F64B9
:103A400065206572726F72210A0000004552523A79
:103A500020636865636B2073756D206572726F7289
:103A6000210A000010B536200A4908600A48C860DB
:103A7000084600F080F818B908A0FCF7D1FB02E076
:103A80000BA0FCF7CDFB4FF4A2710E48FCF777FDBD
:103A900010BD00006B0200207B02002072624372A6
:103AA000656174652053756363657373200A000054
:103AB0007262437265617465204661696C64200AB4
:103AC000000000002701002000F0FEF8012080F334
:103AD000138800BF00BF0748006800F4E060064993
:103AE0000843001D03490860BFF34F8F00BF00BFAC
:103AF000FEE700000CED00E00000FA0510B50246FC
:103B0000012000E050430B1EA1F10104E1B2F9D104
:103B100010BD00B5024612B94FF0FF3000BD50682D
:103B20009168884201D10020F8E750689168884286
:103B300003D290685168401AF0E7104600F014F87C
:103B400051689368C91A401AE8E730B5044614B9B9
:103B50004FF0FF3030BD204600F006F80546204605
:103B6000FFF7D7FF281AF5E7014611B94FF0FF30EC
:103B700070470868FCE7014611B94FF0FF30704705
:103B8000C8684860C86888600020F8E72DE9F041FF
:103B900004460F461646002514B9681EBDE8F0819C
:103BA00017B94FF0FF30F9E76068A168884214D276
:103BB0002046FFF7AEFFB04201D9304602E0204672
:103BC000FFF7A7FF054661682A463846FCF760FC08
:103BD0006068284460602846E0E72046FFF7C4FF9D
:103BE0006168E268891A401AB0420AD935466168AC
:103BF0002A463846FCF74CFC60682844606028463A
:103C0000CCE72046FFF7B0FF6168E268891A451AE1
:103C100061682A463846FCF73BFCE0686060721B2E
:103C200079192046FFF7B2FF05442846B6E72DE98B
:103C3000F04104460F461546002604B11FB94FF067
:103C4000FF30BDE8F0812046FFF77FFFA84202D891
:103C50006FF00100F5E76068A16888422AD8204625
:103C6000FFF782FFA168E268891A461AB54213D8A5
:103C7000A0682A463946FCF70BFCA0682844A060DF
:103C80002046FFF771FFE1680844A168884201D12E
:103C9000E068A0602846D4E7A06832463946FCF7C1
:103CA000F7FBE068A060AA1BB9192046FFF7BFFF29
:103CB0003044C6E7A0682A463946FCF7E9FBA0680D
:103CC0002844A0602846BCE700B585B04FF0000A44
:103CD0000025AB46FDF7AEFF4FF4A060FDF7E2FB19
:103CE0004FF4E13000F05AF9FDF784FBFDF716F9C7
:103CF000FCF742FEFCF7D8FEFDF732F8FDF71AF8A4
:103D00004FF6FF7000230322194600901846FDF776
:103D1000AAF800206949086010214FF6FF724FF49D
:103D20007843CDE90021029065A201461020FDF7FD
:103D3000F1FA002010214FF6FF724FF47843CDE9DD
:103D40000021029060A20846FDF7E4FA002010214D
:103D50004FF6FF724FF47843CDE9002102905EA246
:103D600023211020FDF7D6FA002010214FF6FF7214
:103D70004FF47843CDE9002102905AA23721102058
:103D8000FDF7C8FA00210846FCF77EFE58A0FCF7B4
:103D900047FA91E06448007883450CD0624890F877
:103DA00000B0BBF1000F03D060A0FCF739FA02E0CD
:103DB00060A0FCF735FA0AF1010000F0FF0A0020CC
:103DC000FCF7E6FF0446012C0AD1B5F57A6F02DA5A
:103DD00005F1C80085B229460020FCF755FE0CE02D
:103DE000022C0AD1C82D03DDA5F1C80085B200E080
:103DF000002529460020FCF747FEBAF10A0F03D040
:103E0000012C01D0022C50D10020FCF711FE0490AF
:103E1000049800F04BFC019000F098FA4FF06632E5
:103E2000464BCDE9020100F093F9074600F05EF938
:103E3000064610204FF6FF714FF478420323CDE978
:103E400000210290324637213820FDF711FA0A216D
:103E50000120FCF757FF0490049800F027FC019024
:103E600000F074FA4FF06632344BCDE9020100F0F5
:103E70006FF9074600F03AF9814610204FF6FF71BE
:103E80004FF478420323CDE9002102904A462321D2
:103E90003820FDF7EDF90948006808B9012000E075
:103EA0000020064908604FF0000A2548C0F80B6062
:103EB000C0F80F90FFF74AFC6CE70000A001214218
:103EC0005854552D50584C004B4559303A2B204BE7
:103ED0004559313A2D000000414443313A302E30EB
:103EE00030560000444143313A302E303056000005
:103EF0002D2D2D2D2D2D2D2DBBFAD6C7D4C6494FD6
:103F0000542DB4ABB8D0C6F7BCECB2E2C5A8B6C865
:103F1000B1A8BEAFCAB5D1E92D2D2D2D2D2D2D2D3A
:103F20002D2D0D0A0000000014000020636F6E6E3E
:103F300065637400636C6F736500000066664A3FDA
:103F40004C00002070B505460E4600240DB9601ED9
:103F500070BD00241BE0295D0F48FDF75CFE00BF2B
:103F600040210D48FDF78AFD0028F9D0022C0DD321
:103F7000285DFF280AD155210748FDF74CFE00BFF8
:103F800040210548FDF77AFD0028F9D0641CB442B1
:103F9000E1D33046DCE700000048004010B586B0B1
:103FA0000446012144F20500FDF7B4FA4FF4007015
:103FB000ADF8140003208DF8160018208DF81700B6
:103FC00005A91C48FCF7A3FD4FF48060ADF8140070
:103FD00004208DF8170005A91648FCF798FD252048
:103FE0008DF8000003208DF801008DF802000120FB
:103FF0008DF803006846FDF71DFA01940020ADF826
:104000000800ADF80A00ADF80C00ADF810000C2067
:10401000ADF80E0001A90848FDF78CFD012240F221
:1040200025510548FDF761FD01210348FDF7CCFC52
:1040300006B010BD000801400038014010B586B040
:10404000044601210820FDF765FA01218804FDF7E7
:1040500041FA2448FDF7C4FC4FF48060ADF810002D
:1040600003208DF8120018208DF8130004A91E48B3
:10407000FCF74DFD4FF40060ADF8100004208DF802
:10408000130004A91848FCF742FD00940020ADF885
:104090000400ADF80600ADF80800ADF80C000C20E7
:1040A000ADF80A0069460F48FDF744FD01210D48AF
:1040B000FDF78AFC012240F225510A48FDF715FD63
:1040C00027208DF8140002208DF8150003208DF8AC
:1040D000160001208DF8170005A8FDF7ABF906B012
:1040E00010BD000000480040000C014021F00042DB
:1040F000A2F16052B2F5801F01F0004328BFD2F157
:104100007F6C0BD95FEA001C43EAC20242EB50709D
:1041100018BF704728BF20F001007047B2F5801F1C
:10412000BCBF184670474FEA410C1CF5001F02D275
:10413000084600F096BB70B500F0B4F800000089A6
:10414000FFF7F6BF4FF00040A0F580007047000079
:10415000DFF848C170B51CEA111E1EBF1CEA13151A
:104160009EEA0C0F95EA0C0F00F06F8081EA0304C1
:1041700023EA4C134EEAD47E21EA4C1141F480111B
:1041800043F48013AE44A1FB024CA0FB0365AEF1E7
:104190007F7E361955EB0C05A1FB034C4CF1000357
:1041A000A0FB021C16EB0C06654153F1000309420B
:1041B00018BF46F0010613F4007F0BD14FEA03311C
:1041C0004FEA0530340341EA155140EA16506FF0CA
:1041D00003020AE04FEAC3214FEAC520F40241EA94
:1041E000555140EA56506FF0020202EB2E4201EBAD
:1041F000025585EACE710AD05FEA440C18BF24F05C
:10420000004450F1000041F1000120EAD47040F276
:10421000FE7C624500D270BDA84214BF4FF08044BE
:104220004FF04044002E08BF0024BEF1806FA8BFAD
:10423000A1F1C041BDE8704080F282804FF00000E3
:1042400001F1C04101F0004170479EEA0C0F0CEAF9
:10425000131518BF95EA0C0F06D04FF0000081EA45
:10426000030E0EF0004170BD00F01CF88900013E05
:1042700000F007B800F009B84FEA430C5FEA5C5C55
:1042800008D081EA030100F05BB84FEA410C5FEA15
:104290005C5CF6D14FF00000014970470000FF0759
:1042A0000000F87F0EF1020E2EF0030E5EF8046B94
:1042B000364205D4012A43EB030515F5001F12D839
:1042C000012841EB010C1CF5001F0CD80ED14FEA60
:1042D000D17C15F5001F0CEB4C0C0CF1020C08BF47
:1042E0004CEBD37C04E04FF0080C01E04FEAD37CA8
:1042F0000CEB4C0526FA05F606F00706B6F1040CA1
:1043000006D20EEB860CBDE870404CF0010C604705
:10431000DFE80CF0090B02024FF000414FF0000003
:10432000A1F5002170BD19461046012851EB01048A
:1043300018BFD4F5001484BF002001F0004170BD07
:104340000808A0F500114FEA3101704743004FEA19
:10435000D30C4FEA3C0C43401FBF40070CF16051A7
:1043600013F0FE4F70471CF0006F03D100200CF0DB
:10437000004170470CF0004343EA507010B540EA2A
:10438000CC0000F028FA00BF000000924FEA0001C4
:10439000FFF7D6BF4FF000414FF00000A1F500211C
:1043A0007047000090EA010F48BF81F0004100F122
:1043B0006482421A3CBF801A89184FEAD0524FF0EB
:1043C0007F4C1CEA410FA2EBD15318BF9CEA026F4D
:1043D00000F03B804FF0004C4CEA00204CEA0121F9
:1043E00021FA03FC10EB0C0C1ED202F1FF325FEA43
:1043F0001C2040EBC25038BF70471CF07F0F4FEAC3
:10440000400C18BFBCF17F4F38BF7047C3F1200389
:10441000994008BF20F00100BCF17F4F38BF7047C2
:10442000A0F1C04000F01DBA4FEA3C00000A40EB8A
:10443000C25028BF1CF0FF0F4FEA400CE6D018BF57
:10444000BCF17F4F38BF7047EAE79CEA026F05D0A6
:1044500010EA5C0F08BF00F00040704710B500F094
:10446000BAF900BF64FBBE3E401058BFC0F14040E7
:10447000491058BFC1F140418142EFF300807047BD
:104480004FF47F0C1CEAD0121EBF1CEAD11392EA33
:104490000C0F93EA0C0F00F0858090EA010F48BFE3
:1044A00042F4807240F4000C41F400002CF07F4193
:1044B00020F07F4000B58142A2EB03020FF2081CFE
:1044C000ACEB504EC0F100009EF800E04FEA4E0EFB
:1044D00000FB0EFC38BF49004FEA2C1C02F5FA0223
:1044E0000CFB0EF34FEACE1E4FEA112C4FEAC1210E
:1044F0000EEB635E42EB22420EFB0CFC4FEA1C53B8
:1045000000FB03114FEA112C4FEA01310EFB0CFCAA
:104510004FEADC4C00FB0C11C14228BF09184CEBE0
:1045200003335DF804EB10EB410143EBC250B2F5ED
:104530007C0F38BF704729D512F0F00F1CBF00F177
:10454000C04000F0004070470081828384858687E8
:1045500088898B8C8D8E8F919293959697999A9C42
:104560009D9FA0A2A3A5A7A8AAACAEB0B2B3B5B7B1
:10457000B9BCBEC0C2C5C7C9CCCED1D4D7D9DCDF87
:10458000E2E6E9ECF0F3F7FAFE0000004FEA400C37
:104590000CF1807CBCF17E4F28BF7047B0F1C04069
:1045A00000F05FB990EA010F0CEAD11348BF42F462
:1045B0008072624538BF634507D213F47F0F16D06F
:1045C00080EA010000F00040704710B500F003F9E8
:1045D000097EFC3E00F005B880EA010000F00040D2
:1045E000704780EA010000F0004000F03AB912F490
:1045F0007F0F04BF0248704780EA010000F031B924
:104600000000C07F50EA010C00F113801CF5000F80
:1046100058BFBCF5000F01D48842704707D710F58A
:10462000000F58BF11F5000F15D48842704789421A
:1046300070471CF5000F04D5BCF5000FF7D581427B
:1046400070474FF0807C1CEB400F38BF1CEB410FD4
:1046500001D28142704710B500F0BDF892244900A4
:104660004FF000504FF08051FFF7FEBEC10DD1F169
:104670009E0206DB4FEA002343F0004323FA02F0D8
:104680007047004207D54FEA4001B1F1FE4F02D218
:104690004FF00000704710B500F09DF8499224805B
:1046A000002070476FEA200070470000B0FA80F3E6
:1046B00010FA03F2C3F19D030AD0D90501EB1220D1
:1046C000530638BF704700F1010008BF20F0010019
:1046D000704700004FF47F0C1CEAD0121EBF1CEA8A
:1046E000D11392EA0C0F93EA0C0F00F0478090EA86
:1046F000010F48BF42F480724FF0004C4CEA00209A
:104700004CEA012102EB0302A0FB0113A2F5000217
:10471000002918BF43F001035B0028BF4FEA3303B1
:1047200042EB22425FEA132C4CEBC2502EBFBCEB93
:10473000436FB2F57C0F70474FEA036CBCF1004F3A
:1047400008BF20F00100B2F57C0F38BF70470BD5D1
:1047500082F0FF0212F5803FC8BF704700F1C040F1
:10476000D8BF00F00040704700F5000C5FEA4C0C29
:1047700048BF7047B0F1C04000F073B890EA010F35
:104780000CEAD11348BF42F48072624538BF6345DA
:1047900004D280EA010000F00040704710B500F03C
:1047A0001AF800BF8900013E00F007B800F009B810
:1047B0005FEA410C5FEA1C6C08D080EA010000F05F
:1047C00050B85FEA400C5FEA1C6CF6D14FF0004035
:1047D000A0F5800070470EF1020E2EF0030E5EF879
:1047E000044B244204D44FEA4102B2F17F4F11D866
:1047F0004FEA4003B3F17F4F0CD80ED14FEAD07C83
:10480000B2F17F4F0CEB4C0C0CF1020C08BF4CEBDF
:10481000D17C04E04FF0080C01E04FEAD17C0CEBB6
:104820004C0324FA03F404F00704B4F1040C06D298
:104830000EEB840CBDE810404CF0010C6047DFE843
:104840000CF0070802024FF00040A0F5800010BDF8
:104850000846420018BFD2F1807288BF00F00040C5
:1048600010BDFF2141EAD050C005704790EA010F0A
:1048700048BF81F000413FF59CAD421A04D882F058
:104880000042A0EB020011444FEAD0524FF07F4C9F
:104890001CEA410FA2EBD15318BF9CEA026F4AD029
:1048A0004FF0004C4CEA00204CEA012121FA03FCB5
:1048B000B0EB0C0C0FD412F0FE0F36D05FEA4C00B8
:1048C0001DD5001240EBC25038BF70471CF03F0F9F
:1048D00018BF70470BE0A2F101025FEA1C2040EB19
:1048E000C25038BF70471CF07F0F18BF7047C3F12C
:1048F0002003994014BF401E20F00100704780083B
:104900004FEA122308BF7047B0FA80FCA2EB0C02FA
:10491000CCF1280C60FA0CF093EA122F04BF00EBE4
:10492000C25070474FEAC3707047130A5FEADC1049
:1049300008BF7047F6E79CEA026F04D010EA5C0FEC
:1049400008BF0020704710B5FFF745FF40DFF63E77
:1049500081F00040704700000000000000000000EF
:104960000000000004040404040000040000141407
:104970000A00000000000000000000000A0A1F0AF0
:104980000A1F0A0A000000040E1505060C14150E75
:104990000400000012150D152E2C2A120000000034
:1049A000040A0A361515291600000202010000004B
:1049B00000000000000010080804040404040808B3
:1049C000100002040408080808080404020000009B
:1049D0000004150E0E150400000000000008083E3B
:1049E00008080000000000000000000000000202B3
:1049F000010000000000003F000000000000000077
:104A00000000000000000002000000201010080854
:104A100004040202010000000E1111111111110E07
:104A200000000000040604040404040E000000005A
:104A30000E1111080402011F000000000E11100CDD
:104A40001010110E00000000080C0C0A091F081CB1
:104A5000000000001F01010F1110110E00000000E6
:104A60000C12010D1311110E000000001E10080899
:104A700004040404000000000E11110E1111110EA7
:104A8000000000000E1111191610090600000000A8
:104A9000000004000000000400000000000000040A
:104AA00000000004040000001008040202040810C2
:104AB0000000000000003F003F0000000000000078
:104AC0000204081010080402000000000E11110872
:104AD00004040004000000001C22292D2D1D221CAE
:104AE0000000000004040C0A0A1E1233000000003B
:104AF0000F12120E1212120F000000001E110101FF
:104B00000101110E000000000F1212121212120FFA
:104B1000000000001F120A0E0A02121F000000000F
:104B20001F120A0E0A020207000000001C120101F7
:104B30003911120C000000003312121E121212332F
:104B4000000000001F0404040404041F000000000F
:104B50003E080808080808080907000037120A0676
:104B60000A12123700000000070202020202223F6E
:104B7000000000003B1B1B1B151515350000000035
:104B80003B1216161A1A1217000000000E1111110E
:104B90001111110E000000000F12120E0202020786
:104BA000000000000E1111111117190E180000005D
:104BB0000F12120E0A121237000000001E11010619
:104BC0000810110F000000001F1504040404040E57
:104BD00000000000331212121212120C000000002A
:104BE0003312120A0A0C04040000000015151515F2
:104BF0000E0A0A0A000000001B0A0A04040A0A1B23
:104C0000000000001B0A0A0A0404040E0000000051
:104C10001F0908040402121F00001C0404040404F9
:104C2000040404041C000002020404040808081020
:104C300010000E0808080808080808080E00040AF2
:104C40000000000000000000000000000000000064
:104C500000000000003F020400000000000000000F
:104C6000000000000000000C121C123C00000003B9
:104C70000202020E1212120E000000000000001CC0
:104C80001202120C000000181010101C1212123C1C
:104C9000000000000000000C121E021C00000018A2
:104CA0002404041E0404041E000000000000003C54
:104CB000120C021C221C00030202020E12121237F6
:104CC00000000004040000060404040E00000008B4
:104CD0000800000C08080808080700030202021A6E
:104CE0000A060A1300000007040404040404041F55
:104CF000000000000000000F151515150000000051
:104D00000000000F12121237000000000000000C1B
:104D10001212120C000000000000000F1212120EFE
:104D2000020700000000001C1212121C10380000C4
:104D30000000001B06020207000000000000001E29
:104D4000020C101E000000000004041E0404041CD9
:104D5000000000000000001B1212123C00000000C6
:104D60000000001B0A0A04040000000000000015F7
:104D7000150E0A0A000000000000001B0A040A1BAE
:104D8000000000000000003312120C0804030000B1
:104D90000000001E0804041E000018080808080C83
:104DA000080808081800080808080808080808087B
:104DB0000808060404040408040404040600160990
:104DC00000000000000000000000000000000000E3
:104DD00000000000000000000000000000080808BB
:104DE0000808080800001818000000486C24120089
:104DF0000000000000000000000000000024242447
:104E00007F1212127F12121200000000081C2A2AC0
:104E10000A0C1828282A2A1C080800000022251538
:104E200015152A585454542200000000000C121288
:104E3000120A76252911916E00000006060403006F
:104E400000000000000000000000004020101008DA
:104E50000808080808101020400000020408081084
:104E600010101010100808040200000000000808CC
:104E70006B1C1C6B08080000000000000000080804
:104E800008087F0808080800000000000000000073
:104E900000000000000006060403000000000000FF
:104EA0000000FE0000000000000000000000000004
:104EB00000000000000006060000000080404020C6
:104EC0002010100808040402020000000018244208
:104ED00042424242424224180000000000080E08EC
:104EE000080808080808083E00000000003C42428C
:104EF000422020100804427E00000000003C424294
:104F0000201820404042221C0000000000203028D1
:104F1000242422227E20207800000000007E02024D
:104F2000021A26404042221C0000000000382402E1
:104F3000021A26424242241800000000007E22226B
:104F4000101008080808080800000000003C424251
:104F5000422418244242423C00000000001824422F
:104F6000424264584040241C000000000000000041
:104F700018180000000018180000000000000000D1
:104F80000008000000000008080400000040201095
:104F90000804020408102040000000000000000087
:104FA0007F0000007F0000000000000000020408F5
:104FB000102040201008040200000000003C424283
:104FC000464020101000181800000000001C225A53
:104FD000555555552D42221C0000000000080818A8
:104FE0001414243C224242E700000000001F222249
:104FF000221E22424242221F00000000007C424248
:10500000010101010142221C00000000001F224298
:10501000424242424242221F00000000003F421230
:10502000121E12120242423F00000000003F4212D4
:10503000121E12120202020700000000003C22228F
:10504000010101712122221C0000000000E7424200
:1050500042427E42424242E700000000003E080811
:10506000080808080808083E00000000007C10102E
:105070001010101010101010110F000000772212E5
:105080000A0E0A1212222277000000000007020214
:10509000020202020202427F000000000077363660
:1050A00036362A2A2A2A2A6B0000000000E34646E8
:1050B0004A4A52525262624700000000001C2241DC
:1050C000414141414141221C00000000003F424259
:1050D00042423E020202020700000000001C224180
:1050E000414141414D53321C60000000003F4242AB
:1050F000423E1212222242C700000000007C4242BF
:10510000020418204042423E00000000007F49088F
:10511000080808080808081C0000000000E74242D0
:10512000424242424242423C0000000000E742420A
:10513000222424141418080800000000006B4949B8
:1051400049495555362222220000000000E742243A
:1051500024181818242442E70000000000772222B7
:10516000141408080808081C00000000007E212014
:10517000101008040442423F0000007808080808A4
:10518000080808080808080878000000020204045B
:1051900008080810102020204040001E1010101099
:1051A00010101010101010101E00003844000000E5
:1051B00000000000000000000000000000000000EF
:1051C000000000000000000000FF000608000000D2
:1051D00000000000000000000000000000000000CF
:1051E000003C4278444242FC0000000000030202FE
:1051F000021A26424242261A000000000000000067
:1052000000384402020244380000000000604040C0
:1052100040784442424264D8000000000000000090
:10522000003C427E0202423C0000000000F0880880
:10523000087E08080808083E000000000000000082
:10524000007C22221C023C42423C0000000302027D
:10525000023A4642424242E700000000000C0C00C5
:10526000000E08080808083E00000000003030006A
:105270000038202020202020221E000000030202EF
:105280000272120A1612227700000000000E0808AF
:10529000080808080808083E000000000000000098
:1052A000007F9292929292B70000000000000000EE
:1052B000003B4642424242E700000000000000007E
:1052C000003C42424242423C00000000000000001C
:1052D000001B26424242221E02070000000000007E
:1052E000007844424242447840E000000000000060
:1052F00000774C040404041F0000000000000000BC
:10530000007C42023C40423E0000000000000008D9
:10531000083E0808080808300000000000000000EF
:1053200000634242424262DC0000000000000000D4
:1053300000E74224241408080000000000000000D8
:1053400000EB4949555522220000000000000000F2
:10535000007624181818246E0000000000000000D9
:1053600000E7422424141808080700000000000089
:10537000007E22100808447E000000C0202020206B
:105380002010202020202020C0001010101010100D
:105390001010101010101010101000060808080847
:1053A000081008080808080806000C32C2000000AF
:1053B00000000000000000000000000000000000ED
:1053C00000000000000000000000000000000000DD
:1053D00000000000000000000000000000000000CD
:1053E00000000000000000000000000000000000BD
:1053F000000060006000600060006000600060000D
:10540000400020002000200000000000000060009C
:105410006000600000000000000000000000600666
:10542000600630039801880044000000000000007E
:10543000000000000000000000000000000000006C
:10544000000000000000000000000000000000005C
:1054500000001002100210021002FE07FE070802F0
:105460000801080108010801FE07FE070401040104
:105470000401040100000000000000000000000022
:1054800040004000F00158034C03CC034C0058008E
:105490007000E000C001C00140034C035C034C03FA
:1054A0004801F00040004000000000000000000043
:1054B00000000E010A01910091009100510051007D
:1054C0003A00AE03A00250045004480448044804C3
:1054D00084028403000000000000000000000000BF
:1054E000000038006C006C006C006C006C002C003C
:1054F00098071C011A01330133016301E300C3085B
:10550000C6093C07000000000000000000000C007D
:105510001C00100010000800040000000000000043
:10552000000000000000000000000000000000007B
:105530000000000000000000000000000000000467
:105540000002000180008000400040002000200098
:1055500020002000200020002000400040008000AB
:1055600080000001000200040000000000000200B2
:10557000040008001000100020002000400040003F
:10558000400040004000400040002000200010008B
:1055900010000800040002000000000000000000ED
:1055A0000000000000004000C0004000460C4E0F0C
:1055B000D001F0015E0F460C4000400040000000AA
:1055C00000000000000000000000000000000000DB
:1055D00000000000000000004000400040004000CB
:1055E0004000FE0F4000400040004000400000002E
:1055F00000000000000000000000000000000000AB
:10560000000000000000000000000000000000009A
:1056100000000000000000000000000000000C007E
:105620001C00100010000800040000000000000032
:10563000000000000000000000000000000000006A
:105640000000FE0700000000000000000000000055
:10565000000000000000000000000000000000004A
:10566000000000000000000000000000000000003A
:1056700000000000000000000000000000001C000E
:105680001C001C00000000000000000000000004DE
:1056900000060002000300010001800080004000BD
:1056A00040006000200020001000100008000800EA
:1056B0000C000400060002000000000000000000D2
:1056C00000000000F00098010C030C03060606061B
:1056D0000606060606060606060606060C030C0364
:1056E0009801F00000000000000000000000000031
:1056F0000000000040007C0060006000600060006E
:105700006000600060006000600060006000600099
:105710006000FC030000000000000000000000002A
:1057200000000000F80084010203060306030003E2
:1057300000018001C0006000200010000802040287
:105740000602FE0300000000000000000000000050
:10575000000000007800C6008601860180018001FB
:10576000C00070008001000100030003060306036F
:105770008601F800000000000000000000000000AA
:105780000000000080018001C001A001A001900183
:105790008801880184018201FE0F8001800180015F
:1057A0008001E00700000000000000000000000091
:1057B00000000000FC0304000400040004000400D6
:1057C000F4008C01040300030003060306038201B6
:1057D0008401F8000000000000000000000000004C
:1057E00000000000E00118030C030C000400060098
:1057F000E60116030E0606060606060604060C0259
:105800001803F0000000000000000000000000008D
:1058100000000000F8070C0604020401000100016A
:105820008000800040004000400060006000600098
:1058300060006000000000000000000000000000A8
:1058400000000000F8010C030606060606060C021E
:105850001C03F000C8010C03060606060606060631
:105860000C03F00100000000000000000000000038
:1058700000000000F0000C010C03060206060606FC
:10588000060606078C0678060006000300030C01D6
:105890008C01780000000000000000000000000003
:1058A0000000000000000000000000000000E00018
:1058B000E000E00000000000000000000000E00048
:1058C000E000E00000000000000000000000000018
:1058D0000000000000000000000000000000600068
:1058E0006000000000000000000000000000000058
:1058F0006000600040002000200000000000000068
:1059000000000004000200018000400020001000A0
:105910000800040008001000200040008000000182
:105920000002000400000000000000000000000071
:105930000000000000000000000000000000FE0762
:10594000000000000000FE07000000000000000052
:105950000000000000000000000000000000000047
:10596000000004000800100020004000800000013A
:10597000000200040002000180004000200010002E
:10598000080004000000000000000000000000000B
:1059900000000000E0031806040C040C0C0C0C0CB6
:1059A0000007800140004000400000000000E000CF
:1059B000E000E00000000000000000000000000027
:1059C0000000E00018030C02CC0564056605A6057E
:1059D000B604B604B604B604B602E4010C040C0224
:1059E0001803F000000000000000000000000000AC
:1059F00000000000600060005000D00090009000A7
:105A0000880088010801F80104030403040202026B
:105A100002060F0F00000000000000000000000060
:105A200000000000FE008C030C030C030C030C03AD
:105A30008C01FC000C030C020C060C060C060C0678
:105A40000C03FE0100000000000000000000000048
:105A500000000000E00318030C060C040404060018
:105A60000600060006000600060006040C040C02F0
:105A70001803F0000000000000000000000000001B
:105A8000000000007F008C010C030C030C060C06C8
:105A90000C060C060C060C060C060C060C030C037C
:105AA0008C017F00000000000000000000000000EA
:105AB00000000000FF03060306040604060086003B
:105AC0008600FE00860086008600060006040604A6
:105AD0000602FF03000000000000000000000000BC
